:020000040000FA
:02000000A7282F
:080008006228920B0528860115
:10001000080002309400940B0B28080082077E34FD
:100020000C34B6349E34CC34DA34FA340E34FE3424
:10003000DE34013085000E080E20860005200230D7
:1000400085000F080E20860005200430850010086A
:100050000E20860005200830850011080E2086003D
:10006000052008008C0A0C0803110A3A031D080039
:100070008C018D0A0D080311063A031D08008D013D
:100080008E0A0E0803110A3A031D08008E018F0A1A
:100090000F080311063A031D08008F01900A110E84
:1000A00010070311133A031D5A28900191010130E2
:1000B00090000800100803110A3A031D080090017F
:1000C000910A08008B139600030E97000B11053060
:1000D0008100930A13087F3903117D3A031D7F289D
:1000E000931F7628930132207F287F28931F7C2836
:1000F0009301061032207F28C83093000614170E93
:100100008300960E160E8B17090081178B1383162A
:10011000EF3086008312003086000920861892286E
:100120004020962809200619A1284E208316860112
:100130008312643095001920950B9B288B1781132F
:1001400008008316860183128B17811308008C0127
:100150008D018E018F019001910192019301940113
:100160009501960197018316860185010330810070
:0C0170008B168B17831219208520BB28EA
:02400E00F13F80
:00000001FF
